{
  "contractName": "Basicacl",
  "abi": [
    {
      "inputs": [],
      "stateMutability": "nonpayable",
      "type": "constructor"
    },
    {
      "inputs": [],
      "name": "NotOwnerAccess",
      "type": "error"
    },
    {
      "inputs": [],
      "name": "withdraw",
      "outputs": [],
      "stateMutability": "nonpayable",
      "type": "function"
    },
    {
      "inputs": [],
      "name": "changeOwner",
      "outputs": [],
      "stateMutability": "nonpayable",
      "type": "function"
    }
  ],
  "bytecode": "0x608060405234801561001057600080fd5b50336000806101000a81548173ffffffffffffffffffffffffffffffffffffffff021916908373ffffffffffffffffffffffffffffffffffffffff1602179055506101d3806100606000396000f3fe608060405234801561001057600080fd5b50600436106100365760003560e01c80633ccfd60b1461003b57806362a0947714610045575b600080fd5b61004361004f565b005b61004d6100d6565b005b60008054906101000a900473ffffffffffffffffffffffffffffffffffffffff1673ffffffffffffffffffffffffffffffffffffffff163373ffffffffffffffffffffffffffffffffffffffff16146100d4576040517fd5bbece800000000000000000000000000000000000000000000000000000000815260040160405180910390fd5b565b60008054906101000a900473ffffffffffffffffffffffffffffffffffffffff1673ffffffffffffffffffffffffffffffffffffffff163373ffffffffffffffffffffffffffffffffffffffff161461015b576040517fd5bbece800000000000000000000000000000000000000000000000000000000815260040160405180910390fd5b336000806101000a81548173ffffffffffffffffffffffffffffffffffffffff021916908373ffffffffffffffffffffffffffffffffffffffff16021790555056fea26469706673582212207b8bb3a5f0b8daa1514beb591257525ce882627682f5b39c2b06445b2b85234964736f6c63430008130033",
  "immutableReferences": {},
  "source": "//SPX-Licence-Identifier: MIT\npragma solidity ^0.8.19;\n\ncontract Basicacl {\n    address private owner;\n\n    constructor(){\n        owner = address(msg.sender);\n    }\n\n    error NotOwnerAccess();\n    modifier onlyOwner(){\n        if(msg.sender!=owner) revert NotOwnerAccess();\n        _;\n    }\n\n    function withdraw() public onlyOwner {\n        //some withdraw logic here\n    }\n\n    function changeOwner() public onlyOwner {\n        owner = msg.sender;\n    }\n}",
  "sourcePath": "/home/aca/smartcontracts/acl/contracts/Basicacl.sol",
  "compiler": {
    "name": "solc",
    "version": "0.8.19+commit.7dd6d404.Emscripten.clang"
  },
  "schemaVersion": "3.4.16",
  "updatedAt": "2025-04-26T17:19:07.045Z",
  "devdoc": {
    "kind": "dev",
    "methods": {},
    "version": 1
  },
  "userdoc": {
    "kind": "user",
    "methods": {},
    "version": 1
  }
}