{
  "contractName": "OpenzeppelinOwnable",
  "abi": [
    {
      "inputs": [],
      "stateMutability": "nonpayable",
      "type": "constructor"
    },
    {
      "inputs": [
        {
          "internalType": "address",
          "name": "owner",
          "type": "address"
        }
      ],
      "name": "OwnableInvalidOwner",
      "type": "error"
    },
    {
      "inputs": [
        {
          "internalType": "address",
          "name": "account",
          "type": "address"
        }
      ],
      "name": "OwnableUnauthorizedAccount",
      "type": "error"
    },
    {
      "anonymous": false,
      "inputs": [
        {
          "indexed": true,
          "internalType": "address",
          "name": "previousOwner",
          "type": "address"
        },
        {
          "indexed": true,
          "internalType": "address",
          "name": "newOwner",
          "type": "address"
        }
      ],
      "name": "OwnershipTransferred",
      "type": "event"
    },
    {
      "inputs": [],
      "name": "owner",
      "outputs": [
        {
          "internalType": "address",
          "name": "",
          "type": "address"
        }
      ],
      "stateMutability": "view",
      "type": "function"
    },
    {
      "inputs": [],
      "name": "renounceOwnership",
      "outputs": [],
      "stateMutability": "nonpayable",
      "type": "function"
    },
    {
      "inputs": [
        {
          "internalType": "address",
          "name": "newOwner",
          "type": "address"
        }
      ],
      "name": "transferOwnership",
      "outputs": [],
      "stateMutability": "nonpayable",
      "type": "function"
    },
    {
      "inputs": [],
      "name": "guardedbyOwnable",
      "outputs": [],
      "stateMutability": "nonpayable",
      "type": "function"
    }
  ],
  "bytecode": "0x608060405234801561001057600080fd5b5033600073ffffffffffffffffffffffffffffffffffffffff168173ffffffffffffffffffffffffffffffffffffffff16036100845760006040517f1e4fbdf700000000000000000000000000000000000000000000000000000000815260040161007b919061019e565b60405180910390fd5b6100938161009960201b60201c565b506101b9565b60008060009054906101000a900473ffffffffffffffffffffffffffffffffffffffff169050816000806101000a81548173ffffffffffffffffffffffffffffffffffffffff021916908373ffffffffffffffffffffffffffffffffffffffff1602179055508173ffffffffffffffffffffffffffffffffffffffff168173ffffffffffffffffffffffffffffffffffffffff167f8be0079c531659141344cd1fd0a4f28419497f9722a3daafe3b4186f6b6457e060405160405180910390a35050565b600073ffffffffffffffffffffffffffffffffffffffff82169050919050565b60006101888261015d565b9050919050565b6101988161017d565b82525050565b60006020820190506101b3600083018461018f565b92915050565b6103af806101c86000396000f3fe608060405234801561001057600080fd5b506004361061004c5760003560e01c8063715018a6146100515780638da5cb5b1461005b578063bc34c29d14610079578063f2fde38b14610083575b600080fd5b61005961009f565b005b6100636100b3565b6040516100709190610300565b60405180910390f35b6100816100dc565b005b61009d6004803603810190610098919061034c565b6100e6565b005b6100a761016c565b6100b160006101f3565b565b60008060009054906101000a900473ffffffffffffffffffffffffffffffffffffffff16905090565b6100e461016c565b565b6100ee61016c565b600073ffffffffffffffffffffffffffffffffffffffff168173ffffffffffffffffffffffffffffffffffffffff16036101605760006040517f1e4fbdf70000000000000000000000000000000000000000000000000000000081526004016101579190610300565b60405180910390fd5b610169816101f3565b50565b6101746102b7565b73ffffffffffffffffffffffffffffffffffffffff166101926100b3565b73ffffffffffffffffffffffffffffffffffffffff16146101f1576101b56102b7565b6040517f118cdaa70000000000000000000000000000000000000000000000000000000081526004016101e89190610300565b60405180910390fd5b565b60008060009054906101000a900473ffffffffffffffffffffffffffffffffffffffff169050816000806101000a81548173ffffffffffffffffffffffffffffffffffffffff021916908373ffffffffffffffffffffffffffffffffffffffff1602179055508173ffffffffffffffffffffffffffffffffffffffff168173ffffffffffffffffffffffffffffffffffffffff167f8be0079c531659141344cd1fd0a4f28419497f9722a3daafe3b4186f6b6457e060405160405180910390a35050565b600033905090565b600073ffffffffffffffffffffffffffffffffffffffff82169050919050565b60006102ea826102bf565b9050919050565b6102fa816102df565b82525050565b600060208201905061031560008301846102f1565b92915050565b600080fd5b610329816102df565b811461033457600080fd5b50565b60008135905061034681610320565b92915050565b6000602082840312156103625761036161031b565b5b600061037084828501610337565b9150509291505056fea264697066735822122062975dcffb3da84f589fe22f0d921b1329bd3a80893360310a5a013872d7cdbd64736f6c63430008130033",
  "immutableReferences": {},
  "source": "//SPX-Licence-Identifier: MIT\npragma solidity ^0.8.19;\nimport \"@openzeppelin/contracts/access/Ownable.sol\";\ncontract OpenzeppelinOwnable is Ownable{\n    // address private owner;\n\n    constructor() Ownable(msg.sender){\n    }\n\n    // error NotOwnerAccess();\n    // modifier onlyOwnerLocal(){\n    //     if(msg.sender!=owner) revert NotOwnerAccess();\n    //     _;\n    // }\n\n    // function withdraw() public onlyOwnerLocal {\n    //     //some withdraw logic here\n    // }\n\n    // function changeOwner() public onlyOwnerLocal {\n    //     owner = msg.sender;\n    // }\n\n    function guardedbyOwnable() public onlyOwner{\n\n    }\n}",
  "sourcePath": "/home/aca/smartcontracts/acl/contracts/OpenzeppelinOwnable.sol",
  "compiler": {
    "name": "solc",
    "version": "0.8.19+commit.7dd6d404.Emscripten.clang"
  },
  "schemaVersion": "3.4.16",
  "updatedAt": "2025-04-26T17:31:54.205Z",
  "devdoc": {
    "errors": {
      "OwnableInvalidOwner(address)": [
        {
          "details": "The owner is not a valid owner account. (eg. `address(0)`)"
        }
      ],
      "OwnableUnauthorizedAccount(address)": [
        {
          "details": "The caller account is not authorized to perform an operation."
        }
      ]
    },
    "kind": "dev",
    "methods": {
      "owner()": {
        "details": "Returns the address of the current owner."
      },
      "renounceOwnership()": {
        "details": "Leaves the contract without owner. It will not be possible to call `onlyOwner` functions. Can only be called by the current owner. NOTE: Renouncing ownership will leave the contract without an owner, thereby disabling any functionality that is only available to the owner."
      },
      "transferOwnership(address)": {
        "details": "Transfers ownership of the contract to a new account (`newOwner`). Can only be called by the current owner."
      }
    },
    "version": 1
  },
  "userdoc": {
    "kind": "user",
    "methods": {},
    "version": 1
  }
}